:020000040000FA
:04000000E7EF09F02D
:10060000000102040020202042454D2056494E445E
:100610004F2120002020434F525245544F21203A71
:10062000292000202020434152524547414E444F4B
:10063000200020494E434F525245544F21203A2822
:10064000002020204D454D4F52495A452120002081
:100650002020504F52204A4F4741522100505245CE
:100660005353494F4E452052423300202020204F03
:100670004252494741444F00494E53495241204F4D
:0B06800053004E554D45524F530000F3
:10068C00D0EC0AF0000E396E010E386E000E3F6E83
:10069C00050E3E6E000E316E000E306E060EC16EF3
:1006AC00000E956E000E966EF80E936EB9EC09F076
:1006BC00C1EC0AF02E6E2E50076E086A5DEC0AF043
:1006CC005AEC09F0800E89EC0AF0050E086E060E45
:1006DC00096E14EC0AF0C20E74EC0AF0C00E89EC30
:1006EC000AF07E0E74EC0AF05D0E086E060E096EB2
:1006FC0014EC0AF081B685EF03F087EF03F080EF7E
:10070C0003F0010E89EC0AF0000E3B6E000E3A6EFF
:10071C00800E89EC0AF07E0E74EC0AF0410E086E25
:10072C00060E096E14EC0AF0C00E89EC0AF0000EED
:10073C00376ECFEF03F080EC06F019C023F01AC02F
:10074C0024F0000E266E090E256E50EC07F023C027
:10075C0032F024C033F04A0E3224D96E000E33200E
:10076C00DA6EDF5074EC0AF04A0E3224D96E000EA9
:10077C003320DA6E690E3724E16EE26A000EE22253
:10078C00DFCFE7FF4D0E086E060E096E14EC0AF073
:10079C00372A37502E6E2F6A3E502E5C3F502F5802
:1007AC00D8A0DBEF03F0DDEF03F0A1EF03F003ECD7
:1007BC0006F0010E89EC0AF0800E89EC0AF0780E36
:1007CC00086E060E096E14EC0AF0C00E89EC0AF0E5
:1007DC00820E086E060E096E14EC0AF07E0E74EC96
:1007EC000AF04D0E086E060E096E14EC0AF0000E9F
:1007FC00356E000E346E1CEF04F00F0E956E000E6D
:10080C00086E000E076E1EEC05F0300F366E000EF3
:10081C00956E365074EC0AF0620E3424D96E000ECC
:10082C003520DA6E36C0DFFF344A352A3E50345C50
:10083C003F503558D8A025EF04F027EF04F003EF14
:10084C0004F0070E026ED00E016EF6EC08F0000EEE
:10085C003D6E000E3C6E4CEF04F0690E3C24D96EDC
:10086C00000E3D20DA6E620E3C24E16E000E3D203F
:10087C00E26EDE50E618D8A446EF04F048EF04F020
:10088C004AEF04F0304A312A3C4A3D2A3E503C5C47
:10089C003F503D58D8A055EF04F057EF04F033EF1C
:1008AC0004F03E50301807E13F503118D8A461EFE6
:1008BC0004F063EF04F08DEF04F0744A752AB9EC80
:1008CC0009F0010E89EC0AF0800E89EC0AF0140E86
:1008DC00086E060E096E14EC0AF0C00E89EC0AF0D4
:1008EC007E0E74EC0AF05D0E086E060E096E14ECAA
:1008FC000AF08AEC09F081B686EF04F088EF04F078
:10090C0081EF04F0010E89EC0AF0B1EF04F0B9ECC0
:10091C0009F0010E89EC0AF0800E89EC0AF0320E17
:10092C00086E060E096E14EC0AF0C00E89EC0AF083
:10093C007E0E74EC0AF05D0E086E060E096E14EC59
:10094C000AF081B6ACEF04F0AEEF04F0A7EF04F0C0
:10095C00010E89EC0AF0D8903A34D96E3B34DA6E39
:10096C00400ED926000EDA22DECF60F0DDCF61F02A
:10097C00000E316E000E306E384A392A030E3818CC
:10098C003910D8B4CCEF04F0CEEF04F0D8EF04F06B
:10099C00050E38183910D8A4D6EF04F0D8EF04F0AF
:1009AC00DAEF04F03E4A3F2A060E38183910D8A464
:1009BC00E2EF04F0E4EF04F0F9EF04F0010E89EC3F
:1009CC000AF0800E89EC0AF06B0E086E060E096EAA
:1009DC0014EC0AF0C00E89EC0AF04F0E086E060EED
:1009EC00096E14EC0AF03A4A3B2A3BBE07EF05F0BD
:1009FC003B5009E1050E3A5CD8A007EF05F009EF72
:100A0C0005F08EEF03F08AEC09F0030E616EE80E30
:100A1C00606E000E756E000E746E81B618EF05F0E8
:100A2C001AEF05F013EF05F048EF03F000EF00F0BC
:100A3C00000E0A6E000E096E000E0C6E81CF0BF0CC
:100A4C00CFEF05F0000E0D6E010E0D24F66EF76A59
:100A5C00060EF7220800F550FF0A811283B639EF13
:100A6C0005F03BEF05F053EF05F0000E026E0F0E94
:100A7C00016EF6EC08F083B646EF05F048EF05F092
:100A8C0053EF05F083A64DEF05F04FEF05F048EF5F
:100A9C0005F00D280C6EC5EF05F083B458EF05F08A
:100AAC005AEF05F073EF05F0000E026E0F0E016E9B
:100ABC00F6EC08F083B465EF05F067EF05F073EF23
:100ACC0005F083A46CEF05F06EEF05F067EF05F011
:100ADC000D50040F0C6EC5EF05F083B278EF05F0E6
:100AEC007AEF05F093EF05F0000E026E0F0E016E1B
:100AFC00F6EC08F083B285EF05F087EF05F093EF85
:100B0C0005F083A28CEF05F08EEF05F087EF05F072
:100B1C000D50070F0C6EC5EF05F083B098EF05F084
:100B2C009AEF05F0B3EF05F0000E026E0F0E016E9A
:100B3C00F6EC08F083B0A5EF05F0A7EF05F0B3EFE6
:100B4C0005F083A0ACEF05F0AEEF05F0A7EF05F0D4
:100B5C000D500A0F0C6EC5EF05F0010E0D24F66E4C
:100B6C00F76A060EF7220800F55081160D2A020EC0
:100B7C000D64C3EF05F0C5EF05F02AEF05F0000E8C
:100B8C00026E050E016EF6EC08F0050E0926000E3D
:100B9C000A220750095C08500A58D8A0D8EF05F073
:100BAC00DAEF05F0E3EF05F007500810D8A4E1EFF9
:100BBC0005F0E3EF05F0EBEF05F00C50D8B4E9EFDE
:100BCC0005F0EBEF05F028EF05F00C50D8A4F1EF91
:100BDC0005F0F3EF05F0F4EF05F00C680B0E0C18B4
:100BEC00D8A4FBEF05F0FDEF05F0FFEF05F0000ECC
:100BFC000C6E0BC081FF0C50120074EF06F0000E4F
:100C0C00926E000E956E000E046E0A0E036E60C09E
:100C1C0001F061C002F083EC08F001C008F002C0E2
:100C2C0009F0000E0B6E0A0E0A6E28EC09F0D89033
:100C3C0008360936800E0824D96E000E0920DA6EAB
:100C4C00DF50836E808A8098000E716E000E706E7D
:100C5C0032EF06F0704A712A880E705C130E7158D0
:100C6C00D8A03BEF06F03DEF06F030EF06F0000E9B
:100C7C00046E640E036E60C001F061C002F083EC80
:100C8C0008F001C008F002C009F0000E0B6E0A0E4D
:100C9C000A6E28EC09F0D89008360936800E082424
:100CAC00D96E000E0920DA6EDF50836E809A808830
:100CBC00000E716E000E706E66EF06F0704A712AAF
:100CCC00880E705C130E7158D8A06FEF06F071EFA0
:100CDC0006F064EF06F06006D8A061066050611063
:100CEC00D8A47BEF06F07DEF06F005EF06F0809AB6
:100CFC008098120077C001F078C002F079C003F040
:100D0C007AC004F07BC005F07CC006F07DC007F013
:100D1C007EC008F02D0E096E7F0E0A6E950E0B6EBE
:100D2C004C0E0C6E2D0E0D6EF40E0E6E510E0F6ED3
:100D3C00580E106EFAEC07F001C01BF002C01CF04C
:100D4C0003C01DF004C01EF005C01FF006C020F04B
:100D5C0007C021F008C022F0010E1B24776E000E94
:100D6C001C20786E000E1D20796E000E1E207A6EEF
:100D7C00000E1F207B6E000E20207C6E000E2120AA
:100D8C007D6E000E22207E6E77C01BF078C01CF0AA
:100D9C0079C01DF07AC01EF07BC01FF07CC020F023
:100DAC007DC021F07EC022F0320EE6EF06F0D89026
:100DBC002232213220321F321E321D321C321B32A3
:100DCC00E82EDDEF06F01BC019F01DC01AF0120062
:100DDC00000E066E04BEF7EF06F0F5EF06F0FDEF21
:100DEC0006F0036C041ED8B0042A010E066E02BE77
:100DFC0004EF07F002EF07F00AEF07F0016C021E98
:100E0C00D8B0022A010E061A000E086E000E076EEC
:100E1C0003500410D8B415EF07F017EF07F03FEFAD
:100E2C0007F0010E056E1FEF07F0D890033604365D
:100E3C00052A04AE24EF07F026EF07F01BEF07F0AE
:100E4C00D890073608360350015C04500258D8A0DD
:100E5C0032EF07F034EF07F039EF07F00350015E83
:100E6C000450025A0780D89004320332052E26EF24
:100E7C0007F00650D8B445EF07F047EF07F04BEFFB
:100E8C0007F0076C081ED8B0082A07C001F008C08C
:100E9C0002F01200000E286E24BE59EF07F057EF37
:100EAC0007F05FEF07F0236C241ED8B0242A010E44
:100EBC00286E26BE66EF07F064EF07F06AEF07F0C6
:100ECC00256C261ED8B0262A25502610D8B471EFD2
:100EDC0007F073EF07F097EF07F0010E276E7BEF2B
:100EEC0007F0D89025362636272A26AE80EF07F055
:100EFC0082EF07F077EF07F02550235C265024583B
:100F0C00D8A08BEF07F08DEF07F091EF07F025508D
:100F1C00235E2650245AD89026322532272E82EF73
:100F2C0007F02850D8B49DEF07F09FEF07F0A3EF20
:100F3C0007F0236C241ED8B0242A23C023F024C02D
:100F4C0024F01200046E829A82968298828AD8903B
:100F5C000436810E0412045049EC08F09488000EFB
:100F6C00766E630E7664BDEF07F0BFEF07F0C1EF4E
:100F7C0007F0C4EF07F0762AB7EF07F0000E766E95
:100F8C00630E7664CCEF07F0CEEF07F0D0EF07F0EE
:100F9C00D3EF07F0762AC6EF07F0000E766E630EDD
:100FAC007664DBEF07F0DDEF07F0DFEF07F0E2EF41
:100FBC0007F0762AD5EF07F0000E766E630E766496
:100FCC00EAEF07F0ECEF07F0EEEF07F0F1EF07F0C8
:100FDC00762AE4EF07F0BDEC08F0036E829A829655
:100FEC00829894980350120020EE11F0070EDE6ADE
:100FFC00E806FDE201A005EF08F007EF08F017EF97
:10100C0008F0095011260A5012220B5013220C50D2
:10101C0014220D5015220E5016220F50172210506C
:10102C001822D89009360A360B360C360D360E3689
:10103C000F361036D8900832073206320532043299
:10104C000332023201320150021003100410051059
:10105C00061007100810D8A436EF08F038EF08F087
:10106C0000EF08F011C001F012C002F013C003F041
:10107C0014C004F015C005F016C006F017C007F038
:10108C0018C008F01200016E000E026E01A051EFA4
:10109C0008F053EF08F056EF08F0828857EF08F08D
:1010AC008298D89001328286000E766E630E76643A
:1010BC0062EF08F064EF08F066EF08F069EF08F0F3
:1010CC00762A5CEF08F08296000E766E630E7664DC
:1010DC0072EF08F074EF08F076EF08F079EF08F093
:1010EC00762A6CEF08F0022A070E026480EF08F0F3
:1010FC0082EF08F04CEF08F01200000E066E000EA6
:10110C00056E03500410D8B48EEF08F090EF08F081
:10111C00B8EF08F0010E076E98EF08F0D890033680
:10112C000436072A04AE9DEF08F09FEF08F094EF09
:10113C0008F0D890053606360350015C045002586E
:10114C00D8A0ABEF08F0ADEF08F0B2EF08F0035009
:10115C00015E0450025A0580D89004320332072EE7
:10116C009FEF08F005C001F006C002F01200000E5F
:10117C00016E000E026E8286000E766E630E766431
:10118C00CAEF08F0CCEF08F0CEEF08F0D1EF08F082
:10119C00762AC4EF08F0D890013282A8D8EF08F074
:1011AC00DAEF08F0DBEF08F0018E8296000E766E17
:1011BC00630E7664E4EF08F0E6EF08F0E8EF08F071
:1011CC00EBEF08F0762ADEEF08F0022A070E026435
:1011DC00F2EF08F0F4EF08F0C1EF08F00150120044
:1011EC00000E046E000E036E1CEF09F0000E056E6F
:1011FC00280E056404EF09F006EF09F008EF09F07A
:10120C001AEF09F0000E066E020E066410EF09F0DC
:10121C0012EF09F014EF09F017EF09F0062A0AEFA4
:10122C0009F0052AFEEF08F0034A042A0150035C7A
:10123C0002500458D8A025EF09F027EF09F0FCEF75
:10124C0008F012000A500B10D8B42FEF09F031EF50
:10125C0009F055EF09F0010E0C6E39EF09F0D8903A
:10126C000A360B360C2A0BAE3EEF09F040EF09F0B4
:10127C0035EF09F00A50085C0B500958D8A049EF1B
:10128C0009F04BEF09F04FEF09F00A50085E0B50D4
:10129C00095AD8900B320A320C2E40EF09F008C0D4
:1012AC0008F009C009F01200010E89EC0AF0800E5A
:1012BC0089EC0AF0230E086E060E096E14EC0AF087
:1012CC00C00E89EC0AF00EBE75EF09F00E5009E164
:1012DC00100E0D5CD8A075EF09F077EF09F079EFDF
:1012EC0009F086EF09F0FF0E74EC0AF0010E026EA5
:1012FC00F40E016EF6EC08F00D4A0E2A69EF09F0B7
:10130C00010E89EC0AF01200F0EC0AF0000E086EE7
:10131C00000E076EFF0EE7EC0AF0030E026EE80EED
:10132C00016EF6EC08F0540E7424D96E000E752084
:10133C00DA6EDF50ECEC0AF0030E026EE80E016E72
:10134C00F6EC08F0074A082A08BEB6EF09F0085078
:10135C0009E1050E075CD8A0B6EF09F0B8EF09F06B
:10136C0090EF09F0120084928494000E026E140E19
:10137C00016EF6EC08F08482380E89EC0AF0000E4F
:10138C00026E050E016EF6EC08F0380E89EC0AF0D0
:10139C00000E026E010E016EF6EC08F0380E89ECB0
:1013AC000AF0080E89EC0AF00F0E89EC0AF0010E17
:1013BC0089EC0AF0380E89EC0AF0800E89EC0AF000
:1013CC001200BA0EF66E150EF76E000EF86E00EEE9
:1013DC0080F010EE14F00900F5CFEEFFE550E1506F
:1013EC00FAE1600EF66E150EF76E000EF86E00EE5A
:1013FC0040F010EE22F00900F5CFEEFFE550E15081
:10140C00FAE100EE62F01D0EEE6AE806FDE1000E58
:10141C00F86E060EF76E000146EF03F0000E0C6E30
:10142C0027EF0AF00C5008240A6E000E09200B6EF0
:10143C000AC0F6FF0BC0F7FF0800F55074EC0AF079
:10144C000C2A0C5008240A6E000E09200B6E0AC0E0
:10145C00F6FF0BC0F7FF0800F5500009D8A439EFD0
:10146C000AF03BEF0AF018EF0AF012002D6E2DC0B7
:10147C0001F0026A000E046E0A0E036EEEEC06F02A
:10148C0001C02BF002C02CF02B3AF00E2B162DC005
:10149C0023F0246A000E266E0A0E256E50EC07F01F
:1014AC0023502B10296E000E9EEC0AF01200FF0E3A
:1014BC00096EFF0E0A6E07C00BF008C00CF0095045
:1014CC000B260A500C220BC077F00CC078F0796A0E
:1014DC007A6A7B6A7C6A7D6A7E6A1200076E8482F5
:1014EC000750F4EC0AF08484000E026E030E016EB9
:1014FC00F6EC08F08492000E026E030E016EF6EC10
:10150C0008F084821200076E84820750F4EC0AF013
:10151C008494000E026E030E016EF6EC08F08492B9
:10152C00000E026E030E016EF6EC08F084821200BF
:10153C002A6E829A82968298828AD8902A362A8E2D
:10154C002A5049EC08F0295049EC08F0829A82960E
:10155C008298120020038A029001C8009600303154
:10156C003233343536373839000103070F1F0F007B
:10157C0005008813E803000EA8EC07F0066E06C001
:10158C0005F00F0E051606380F0B070B0A0DF3505E
:10159C0005241200949A94989496000E296E070EC6
:1015AC009EEC0AF0C1EC0AF03CEC0AF012003F0091
:1015BC0006005B004F0066006D007D0007007F0099
:1015CC006F00016E0150FF0A836E1200016E01C0A4
:1015DC0083FF1200000E956E83681200016E01C02D
:0415EC0083FF120067
:020000040020DA
:08000000FFFFFFFFFFFFFFFF00
:020000040030CA
:0E000000FF021F00FF8381FF0FC00FE00F40C3
:00000001FF
